:1000000034C0000059C0000057C0000055C00000B7
:1000100053C0000051C000004FC000004DC00000A0
:100020004BC0000049C0000047C00000ACC0000049
:1000300043C0000041C000003FC000003DC00000C0
:100040003BC0000039C0000037C0000035C00000D0
:1000500033C0000031C000002FC000002DC00000E0
:100060002BC0000029C000000A0511241FBECFEFDD
:10007000D8E0DEBFCDBF11E0A0E0B1E0EEE0F5E1F9
:1000800002C005900D92AA30B107D9F721E0AAE08D
:10009000B1E001C01D92AF33B207E1F710E0C5E354
:1000A000D0E004C02197FE010E947F0AC433D1072B
:1000B000C9F792D30C94850AA3CF789481E191E09B
:1000C000C6D488E391E0B7D481E191E0C0D461E087
:1000D00070E08AE391E04FD78AE391E050D768EC73
:1000E00070E08AE391E051D760E088E191E003D7C6
:1000F00024E030E044E050E060E070E088E191E02E
:10010000CFD68FE39CE90197F1F700C0000024E00F
:1001100030E044E050E061E070E082E191E0C0D680
:100120008FE39CE90197F1F700C0000060E088E1EF
:1001300091E0E1D68FE39CE90197F1F700C0000060
:1001400060E082E191E0D7D68FE39CE90197F1F777
:1001500000C0000088E191E0EDD69FEF26E781E046
:10016000915020408040E1F700C0000082E191E022
:10017000E1D69FEF26E781E0915020408040E1F7F3
:1001800000C0000008951F920F920FB60F92112425
:100190002F933F938F939F9310928500109284002A
:1001A00080913E01882349F080913C0190913D016E
:1001B000019690933D0180933C0180911E019091A6
:1001C0001F01019690931F0180931E0120911E0133
:1001D00030911F018091000190910101281739078A
:1001E0003CF081E08093390110921F0110921E01B2
:1001F0009F918F913F912F910F900FBE0F901F9065
:1002000018954F925F926F927F928F929F92AF92CA
:10021000BF92CF92DF92EF92FF920F931F93CF93F3
:10022000DF932B013C0149015A01670178014FEF2F
:1002300069E088E191E03CD64FEF69E082E191E02E
:1002400037D640E064E088E191E032D620E030E04B
:1002500040E251E4C301B20122D78ED7462F68E0B5
:1002600088E191E025D6C301B20181D7CAE0D0E090
:10027000CB01BE010E94580A482F406866E088E121
:1002800091E016D620E030E040E251E4C301B20133
:100290000E949E096CD7CB01BE010E94580A482FCC
:1002A00062E088E191E004D640E063E088E191E01B
:1002B000FFD520E030E040E251E4C501B401EFD6C3
:1002C0005BD7462F67E088E191E0F2D5C501B40124
:1002D0004ED7CB01BE010E94580A482F406865E006
:1002E00088E191E0E5D520E030E040E251E4C5014D
:1002F000B4010E949E093BD7CB01BE010E94580A5F
:10030000482F61E088E191E0D3D520E030E040E281
:1003100051E4C701B601C3D62FD7462F66E082E16C
:1003200091E0C6D5C701B60122D7CB01BE010E941C
:10033000580A482F406868E082E191E0B9D520E092
:1003400030E040E251E4C701B601F8D710D7CB0145
:10035000BE010E94580A482F62E082E191E0A8D5D0
:10036000DF91CF911F910F91FF90EF90DF90CF9091
:10037000BF90AF909F908F907F906F905F904F90C5
:100380000895CF92DF92EF92FF92CF93DF936B01AC
:100390007C014FEF69E082E191E08AD520E030E016
:1003A00040E251E4C701B6017AD6E6D6462F66E0B0
:1003B00082E191E07DD5C701B601D9D6CAE0D0E08F
:1003C000CB01BE010E94580A482F406868E082E1D4
:1003D00091E06ED520E030E040E251E4C701B60183
:1003E000ADD7C5D6CB01BE010E94580A482F62E0A6
:1003F00082E191E05DD5DF91CF91FF90EF90DF90AA
:10040000CF90089540E069E088E191E051D540E067
:1004100063E088E191E04CD54BE567E088E191E04D
:1004200047D54FE465E088E191E042D54FE061E0D7
:1004300088E191E03DD54FE064E088E191E038D576
:1004400047E668E088E191E033D540E066E088E186
:1004500091E02ED540E062E088E191E029C5089561
:1004600040E069E088E191E023D540E063E088E185
:1004700091E01ED547E667E088E191E019D545E0B7
:1004800065E088E191E014D54FE461E088E191E016
:100490000FD547E364E088E191E00AD54FE468E0D6
:1004A00088E191E005D547E766E088E191E000D575
:1004B0004FE062E088E191E0FBC4089588E391E0B9
:1004C000C2D22FEF81EE94E0215080409040E1F7BE
:1004D00000C0000088E391E0B8D22FEF81EE94E0F5
:1004E000215080409040E1F700C0000088E391E097
:1004F000AAD22FEF81EE94E0215080409040E1F7A6
:1005000000C0000088E391E0A0D22FEF85EA9EE0D2
:10051000215080409040E1F700C0000088E391E066
:1005200092D22FEF81EE94E0215080409040E1F78D
:1005300000C0000088E391E088D22FEF81EE94E0C4
:10054000215080409040E1F700C0000088E391E036
:100550007AD22FEF81EE94E0215080409040E1F775
:1005600000C00000089588E391E06DD22FEF81EE86
:1005700094E0215080409040E1F700C0000088E303
:1005800091E063D22FEF81EE94E0215080409040C3
:10059000E1F700C0000088E391E055D22FEF81EE33
:1005A00094E0215080409040E1F700C0000088E3D3
:1005B00091E04BD22FEF81EE94E0215080409040AB
:1005C000E1F700C0000008952DEC3CEC4CE45EE344
:1005D00060910601709107018091080190910901D5
:1005E000F6D4209128013091290140912A0150919F
:1005F0002B0151D518162CF180913E01811112C0AA
:1006000081E08093370180910C01882359F081E0CB
:1006100080933E0110923D0110923C0110920C011A
:100620001092370141E050E060E070E081E191E03C
:1006300015D280913C0190913D0188359240A4F4FF
:1006400019C088E391E001D21092370140E050E0F8
:1006500060E070E081E191E001D210923E011092E1
:100660003D0110923C0106C010923E0110923D01E6
:1006700010923C0120E030E044E152E4609124011A
:1006800070912501809126019091270153D618166B
:1006900044F441E050E061E070E081E191E0DED1BE
:1006A00007C040E050E060E070E081E191E0D6D129
:1006B000349973C080910D0181116FC065C0109293
:1006C0000D0133996DC080911001811169C06BC01B
:1006D0002DEC3CEC4CEC5DE360912001709121012C
:1006E000809122019091230172D460932001709334
:1006F0002101809322019093230181E080931001D6
:1007000002C0109210014A9958C080910E018111C7
:1007100054C04EC02DEC3CEC4CEC5DE360912001EC
:100720007091210180912201909123014FD4609317
:10073000200170932101809322019093230181E095
:1007400080930E0102C010920E01189942C0809150
:100750000F0181113EC034C0809120019091210190
:10076000A0912201B091230180930601909307018B
:10077000A0930801B0930901F6DE81E080930F0198
:10078000089510920F01089588E391E05ED181E011
:1007900080930C0180930D0194CF349990CF91CF29
:1007A0003399AFCFB0CF80910B01811191CFA5CFFD
:1007B00080910B018111AECFC2CF4A99C4CFC5CF72
:1007C00090910B0181E0892780930B018111D5CF96
:1007D000C3CF1899D6CF0895EDD36FDCC4DEF12CCA
:1007E000C1E061C080913901882309F45BC0FC2617
:1007F000109239016C2F8CE291E03DD200E010E0C4
:1008000027ED33E440E050E068EC72E48CE291E0E4
:1008100071D2609328017093290180932A019093EB
:100820002B016C2F88E191E066D36C2F82E191E07F
:1008300062D316DEFF2021F082E191E07BD309C074
:10084000609128017091290180912A0190912B01DA
:1008500098DD8090280190902901A0902A01B09005
:100860002B014090020150900301609004017090B0
:100870000501A3019201C501B4015CD518163CF431
:1008800088E391E0DED0C0930A0118DE0CC0A3011A
:100890009201C501B401FFD388232CF488E391E0D1
:1008A000CED001C0000080910A01882309F49ACFBC
:1008B000C0E08ADE809139018823D9F361E088E1C4
:1008C00091E019D361E082E191E015D38091370185
:1008D000882379F09091360181E089278093360151
:1008E000882321F088E391E0AED003C088E391E053
:1008F000ACD080910B01882391F081E0C82751F0A2
:100900006091200170912101809122019091230139
:1009100038DD03C082E191E00DD374DD19C0E090B1
:100920000601F09007010091080110910901209142
:1009300028013091290140912A0150912B016091A9
:10094000240170912501809126019091270159DCA5
:1009500060E081E391E08FD161E08CE291E08BD1A6
:1009600000E010E027ED33E440E050E068EC72E492
:100970008CE291E0BFD160932801709329018093AC
:100980002A0190932B0100E010E027ED33E440E0D2
:1009900050E068EC72E481E391E0ACD16093240113
:1009A0007093250180932601909327018090060182
:1009B00090900701A0900801B0900901C090280113
:1009C000D0902901E0902A01F0902B012DEC3CEC15
:1009D0004CEC5DE3C501B401F9D2A70196015BD3EC
:1009E000181624F088E391E02CD011C02DEC3CECDB
:1009F0004CE45EE3C501B401E9D29B01AC01C7013F
:100A0000B60149D318161CF088E391E018D0109273
:100A100039014FCF8091060190910701A091080103
:100A2000B09109018093200190932101A0932201AC
:100A3000B09323010895539A3D9A5B9808955B9A69
:100A400008955B980895459A089545980895569A93
:100A5000509A519A519A579A509A08956230710556
:100A600041F13CF46115710561F06130710579F077
:100A7000089564307105B9F014F16530710569F0BD
:100A80000895452B11F05E9A08955E980895452BC0
:100A900011F0589A089558980895452B11F0599AD5
:100AA000089559980895452B11F05F9A08955F981D
:100AB0000895452B11F0599A089559980895452B9A
:100AC00011F0589A0895589808956EBD0DB407FE18
:100AD000FDCF8EB50895EF92FF920F931F93CF93A2
:100AE000DF937C01EA01122FFC018081882319F039
:100AF000813021F005C029982A9A02C02A98299AA3
:100B00006F77C701E2DF0FEF010F112361F010E0F3
:100B10000F5F1F4F0C0F1D1F6FEFC701D6DF8993AB
:100B2000C017D107C9F7F7018081882319F08130F8
:100B300019F003C0299A01C02A9ADF91CF911F9121
:100B40000F91FF90EF900895CF93DF931F92CDB751
:100B5000DEB7198221E0AE014F5F5F4FBCDF8981B4
:100B60000F90DF91CF910895CF93DF9300D0CDB751
:100B7000DEB719821A8222E0AE014F5F5F4FABDF12
:100B8000898190E0982F88272A81822B0F900F90DF
:100B9000DF91CF9108951F93CF93DF93EC01142F32
:100BA0008881882319F0813021F005C029982A9A7C
:100BB00002C02A98299A6068CE0187DF612FCE0192
:100BC00084DF8881882319F0813019F003C0299AC5
:100BD00001C02A9ADF91CF911F910895CF93DF939F
:100BE000EC0160E0B1DF837D482F426060E0CE0120
:100BF000D2DFDF91CF9108951F93CF93DF93EC0164
:100C0000162F60E0A1DF112319F0482F406802C0C1
:100C1000482F4F7760E0CE01BEDFDF91CF911F916B
:100C200008951F93CF93DF93EC01162F60E08CDFC4
:100C3000112319F0482F406402C0482F4F7B60E019
:100C4000CE01A9DFDF91CF911F9108951F93CF931C
:100C5000DF93EC01162F60E077DF113019F4482F95
:100C6000406102C0482F4F7E60E0CE0194DFDF91EB
:100C7000CF911F9108951F93CF93DF93EC01162F0F
:100C80008BB180638BB968D185E58CBD188361E039
:100C9000CE01DCDF60E0CE01AFDF60E0CE01C1DF7E
:100CA000CE019CDF81E0DF91CF911F910895CF931A
:100CB000DF93EC0193DF61E0CE019EDF83EC99E0EE
:100CC0000197F1F700C0000060E0CE013DDF482F42
:100CD000406260E0CE015FDF89E79FE30197F1F7B3
:100CE00000C0000061E0CE013FDF96958795DF915F
:100CF000CF9108954F925F926F927F928F929F92C1
:100D0000AF92BF92CF92DF92EF92FF920F931F9319
:100D1000CF93DF934A015B0168017901C8DFBC0111
:100D200080E090E055D220E030E040E058E306D388
:100D3000A701960103D32B013C01A50194016FE7A4
:100D400075E08BE196EBABD16B017C01A3019201C5
:100D5000C701B601F3D226E133E843E957E337D1BF
:100D600054D322E331E140E85BE330D12FE735E0B3
:100D70004BE955EB94D1062F172FD82FC92F20E020
:100D800030E0A901D7D288230CF060C0A5019401FE
:100D9000C301B20184D120E030E048EC52E4CED26D
:100DA0006B017C012BE532E44EE050E4C7D22FE129
:100DB00035E042E753EC0BD12B013C01A701960132
:100DC000C701B601BBD24B015C0124E338E749E21D
:100DD0005BE3B4D2A3019201FAD02B013C01A7013D
:100DE0009601C501B401AAD24B015C0126E03FEE99
:100DF00041EA56E3A3D29B01AC01C301B201E6D0A4
:100E00002B013C01A7019601C501B40197D24B010A
:100E10005C0123E137E142EF52E390D29B01AC0148
:100E2000C301B201D3D02B013C01A7019601C5013A
:100E3000B40184D22BE339E947E25FE27FD2A30118
:100E40009201C5D0062F172FD82FC92F602F712FD1
:100E50008D2F9C2FDF91CF911F910F91FF90EF90DD
:100E6000DF90CF90BF90AF909F908F907F906F90CA
:100E70005F904F9008958CB582658CBD8CB58A7F4C
:100E80008CBD84B1886284B9229A8AB180638AB9A0
:100E90005D9A5C9A08958EBD0DB407FEFDCF08954E
:100EA000FC017183608353834283358324830895D7
:100EB0001F93CF93DF93EC01142F288139812115E3
:100EC000310521F02130310519F003C05D9801C0D2
:100ED0005C98862FE0DF812FDEDF88819981009783
:100EE00019F0019719F003C05D9A01C05C9ADF9177
:100EF000CF911F910895CF93DF93EC01613011F4EE
:100F0000BADF15C0B8DF4FEF69E0CE01D1DF40E0B6
:100F10006FE0CE01CDDF47E06BE0CE01C9DF4FE0EF
:100F20006AE0CE01C5DF41E06CE0CE01C1DFDF91B8
:100F3000CF9108950F931F93CF938C01FC01C4812F
:100F40009281C90F4FE06C2FC801B2DFC150D1F7B9
:100F5000CF911F910F910895229A8CB580618CBD1D
:100F60008CB580648CBD8CB58C7F8CBD259A239A02
:100F7000219A299A0895FC01718360830895EFE610
:100F8000F0E08081826080830895072E000C880B3A
:100F9000990B20D120E030E04AE751E4CFD1E7D0EF
:100FA0007093890060938800E1E8F0E080818560BB
:100FB000808308951092C50087E68093C40088E975
:100FC0008093C10086E08093C20008955058BB27EB
:100FD000AA270ED075C166D130F06BD120F031F464
:100FE0009F3F11F41EF45BC10EF4E095E7FB51C185
:100FF000E92F77D180F3BA17620773078407950743
:1010000018F071F49EF58FC10EF4E0950B2EBA2FF7
:10101000A02D0B01B90190010C01CA01A0011124FE
:10102000FF27591B99F0593F50F4503E68F11A16AA
:10103000F040A22F232F342F4427585FF3CF46953B
:1010400037952795A795F0405395C9F77EF41F165D
:10105000BA0B620B730B840BBAF09150A1F0FF0F27
:10106000BB1F661F771F881FC2F70EC0BA0F621F13
:10107000731F841F48F4879577956795B795F79503
:101080009E3F08F0B3CF9395880F08F09927EE0F95
:10109000979587950895D9D008F481E008950CD0EC
:1010A0000FC107D140F0FED030F021F45F3F19F0BE
:1010B000F0C0511139C1F3C014D198F39923C9F389
:1010C0005523B1F3951B550BBB27AA27621773074E
:1010D000840738F09F5F5F4F220F331F441FAA1F02
:1010E000A9F333D00E2E3AF0E0E830D091505040C2
:1010F000E695001CCAF729D0FE2F27D0660F771F70
:10110000881FBB1F261737074807AB07B0E809F051
:10111000BB0B802DBF01FF2793585F4F2AF09E3FE6
:10112000510568F0B6C000C15F3FECF3983EDCF3B8
:10113000869577956795B795F7959F5FC9F7880F5F
:10114000911D9695879597F90895E1E0660F771FB1
:10115000881FBB1F621773078407BA0720F0621B42
:10116000730B840BBA0BEE1F88F7E095089504D03B
:101170006894B111D9C00895BCD088F09F5790F001
:10118000B92F9927B751A0F0D1F0660F771F881FAC
:10119000991F1AF0BA95C9F712C0B13081F0C3D0C7
:1011A000B1E00895C0C0672F782F8827B85F39F065
:1011B000B93FCCF3869577956795B395D9F73EF40B
:1011C00090958095709561957F4F8F4F9F4F0895B3
:1011D000E89409C097FB3EF49095809570956195D1
:1011E0007F4F8F4F9F4F9923A9F0F92F96E9BB2787
:1011F0009395F695879577956795B795F111F8CF03
:10120000FAF4BB0F11F460FF1BC06F5F7F4F8F4F6D
:101210009F4F16C0882311F096E911C0772321F063
:101220009EE8872F762F05C0662371F096E8862FFB
:1012300070E060E02AF09A95660F771F881FDAF752
:10124000880F9695879597F90895990F0008550F7F
:10125000AA0BE0E8FEEF16161706E807F907C0F03C
:1012600012161306E407F50798F0621B730B840B44
:10127000950B39F40A2661F0232B242B252B21F41E
:1012800008950A2609F4A140A6958FEF811D811DBE
:10129000089597F99F6780E870E060E008959FEFF8
:1012A00080EC089500240A941616170618060906FD
:1012B000089500240A9412161306140605060895CC
:1012C000092E0394000C11F4882352F0BB0F40F454
:1012D000BF2B11F460FF04C06F5F7F4F8F4F9F4F94
:1012E000089557FD9058440F551F59F05F3F71F016
:1012F0004795880F97FB991F61F09F3F79F087957D
:101300000895121613061406551FF2CF4695F1DF05
:1013100008C0161617061806991FF1CF8695710595
:10132000610508940895E894BB2766277727CB01C9
:1013300097F908958ADF08F48FEF08950BD0C0CF96
:10134000B1DF28F0B6DF18F0952309F0A2CFA7CFC0
:101350001124EACFC6DFA0F3959FD1F3950F50E09B
:10136000551F629FF001729FBB27F00DB11D639F57
:10137000AA27F00DB11DAA1F649F6627B00DA11DFD
:10138000661F829F2227B00DA11D621F739FB00DA3
:10139000A11D621F839FA00D611D221F749F332713
:1013A000A00D611D231F849F600D211D822F762FAC
:1013B0006A2F11249F5750408AF0E1F088234AF0A9
:1013C000EE0FFF1FBB1F661F771F881F91505040F5
:1013D000A9F79E3F510570F05CCFA6CF5F3FECF3BD
:1013E000983EDCF3869577956795B795F795E795E1
:1013F0009F5FC1F7FE2B880F911D9695879597F9F2
:10140000089511F40EF44BCF3EC073DFD0F399234F
:10141000D9F3CEF39F57550B87FF43D00024A0E6A6
:1014200040EA900180585695979528F4805C660FA5
:10143000771F881F20F026173707480730F4621BF4
:10144000730B840B202931294A2BA69517940794F6
:10145000202531254A2758F7660F771F881F20F06F
:1014600026173707480730F4620B730B840B200DE7
:10147000311D411DA09581F7B901842F9158880F26
:101480009695879508959F3F31F0915020F4879568
:1014900077956795B795880F911D9695879597F9DC
:1014A000089591505040660F771F881FD2F7089516
:1014B00097FB072E16F4009406D077FD08D00BD0CA
:1014C00007FC05D03EF4909581959F4F0895709547
:1014D00061957F4F0895AA1BBB1B51E107C0AA1F4E
:1014E000BB1FA617B70710F0A61BB70B881F991FC5
:1014F0005A95A9F780959095BC01CD010895EE0FFE
:0E150000FF1F0590F491E02D0994F894FFCFA1
:0A150E0002000000F0410000F4416B
:00000001FF
