S0150000426162795761726D6572556E6F2E73726563F1
S113000034C0000059C0000057C0000055C00000B3
S113001053C0000051C000004FC000004DC000009C
S11300204BC0000049C0000047C00000ABC1000045
S113003043C0000041C000003FC000003DC00000BC
S11300403BC0000039C0000037C0000035C00000CC
S113005033C0000031C000002FC000002DC00000DC
S11300602BC0000029C00000B00411241FBECFEF34
S1130070D8E0DEBFCDBF11E0A0E0B1E0EAE4F4E1F6
S113008002C005900D92A430B107D9F721E0A4E095
S1130090B1E001C01D92A133B207E1F710E0C5E35E
S11300A0D0E004C02197FE010E941D0AC433D10789
S11300B0C9F754D30C94230AA3CF78948FE091E02A
S11300C06CD48DE291E05DD48FE091E066D461E080
S11300D070E08FE291E0EDD68FE291E0EED668EE2B
S11300E073E08FE291E0EFD686E191E0AAD624E0B6
S11300F030E044E050E060E070E086E191E076D6E4
S11301008FE39CE90197F1F700C0000024E030E0A0
S113011044E050E061E070E080E191E067D68FE375
S11301209CE90197F1F700C0000086E191E089D6CF
S11301308FE39CE90197F1F700C0000080E191E0B2
S113014080D68FE39CE90197F1F700C0000086E1B7
S113015091E08ED69FEF26E781E0915020408040C9
S1130160E1F700C0000080E191E082D69FEF26E72E
S113017081E0915020408040E1F700C000000895E4
S113018020E030E042E152E46091240170912501C5
S113019080912601909127010E943809181644F491
S11301A041E050E060E070E08FE091E0FDD307C0F3
S11301B040E050E060E070E08FE091E0F5D320E0B3
S11301C030E044E152E4609120017091210180917A
S11301D02201909123010E943809181644F441E049
S11301E050E061E070E08FE091E0DED307C040E0D2
S11301F050E060E070E08FE091E0D6D334997AC0AB
S113020080910B01811176C080910901811175C023
S113021071C010920B01339977C080910E01811146
S113022073C075C02DEC3CEC4CEC5DE360911C019B
S113023070911D0180911E0190911F0166D66093FB
S11302401C0170931D0180931E0190931F0181E096
S113025080930E0102C010920E014A9962C08091EF
S11302600C0181115EC058C02DEC3CEC4CEC5DE3FC
S113027060911C0170911D0180911E0190911F01DC
S113028043D660931C0170931D0180931E019093CB
S11302901F0181E080930C0102C010920C01189997
S11302A043C080910D0181116AC041C090910A013F
S11302B081E0892780930A01811110C080911C017B
S11302C090911D01A0911E01B0911F018093000126
S11302D090930101A0930201B09303018DE291E098
S11302E058D381E080930D01089580910D0181110F
S11302F038C0089534998DCF8ECF8DE291E04BD3E1
S113030081E080930B0187CF3399A5CFA6CF80914D
S11303100A01811187CF9BCF80910A018111A4CF5B
S1130320B8CF4A99BACFBBCF1899DFCF089580913F
S1130330040190910501A0910601B0910701019675
S1130340A11DB11D8093040190930501A0930601A2
S1130350B09307018135934CA105B10508F0A6CFF0
S11303600895109204011092050110920601109252
S113037007018DE291E00FD310920D0108951899B1
S1130380F0CF08951F920F920FB60F9211248F93FE
S1130390109285001092840081E080932E018F9149
S11303A00F900FBE0F901F9018954F925F926F920F
S11303B07F928F929F92AF92BF92CF92DF92EF92F1
S11303C0FF920F931F93CF93DF932B013C014901BD
S11303D05A01670178014FEF69E086E191E00ED59B
S11303E04FEF69E080E191E009D540E064E086E107
S11303F091E004D520E030E040E251E4C301B201D1
S1130400ECD558D6462F68E086E191E0F7D4C301D5
S1130410B2014BD6CAE0D0E0CB01BE01E7D7482FEA
S1130420406866E086E191E0E9D420E030E040E213
S113043051E4C301B20120D738D6CB01BE01D6D7CF
S1130440482F62E086E191E0D9D440E063E086E1A0
S113045091E0D4D420E030E040E251E4C501B4019D
S1130460BCD528D6462F67E086E191E0C7D4C50104
S1130470B4011BD6CB01BE01B9D7482F406865E053
S113048086E191E0BBD420E030E040E251E4C501D4
S1130490B401F2D60AD6CB01BE01A8D7482F61E039
S11304A086E191E0ABD420E030E040E251E4C701C2
S11304B0B60193D5FFD5462F66E080E191E09ED446
S11304C0C701B601F2D5CB01BE0190D7482F4068D1
S11304D068E080E191E092D420E030E040E251E431
S11304E0C701B601C9D6E1D5CB01BE017FD7482FDC
S11304F062E080E191E082D4DF91CF911F910F916E
S1130500FF90EF90DF90CF90BF90AF909F908F902F
S11305107F906F905F904F900895CF92DF92EF920B
S1130520FF92CF93DF936B017C014FEF69E080E191
S113053091E064D420E030E040E251E4C701B60128
S11305404CD5B8D5462F66E080E191E057D4C70179
S1130550B601ABD5CAE0D0E0CB01BE0147D7482FE6
S1130560406868E080E191E049D420E030E040E276
S113057051E4C701B60180D698D5CB01BE0136D768
S1130580482F62E080E191E039D4DF91CF91FF9070
S1130590EF90DF90CF90089540E069E086E191E02C
S11305A02DD440E063E086E191E028D44BE567E098
S11305B086E191E023D44FE465E086E191E01ED426
S11305C04FE061E086E191E019D44FE064E086E118
S11305D091E014D447E668E086E191E00FD440E06E
S11305E066E086E191E00AD440E062E086E191E0D1
S11305F005C4089540E069E086E191E0FFD340E05E
S113060063E086E191E0FAD347E667E086E191E0B2
S1130610F5D345E065E086E191E0F0D34FE461E095
S113062086E191E0EBD347E364E086E191E0E6D331
S11306304FE468E086E191E0E1D347E766E086E1D4
S113064091E0DCD34FE062E086E191E0D7C3089506
S11306508DE291E09ED12FEF81EE94E02150804015
S11306609040E1F700C000008DE291E094D12FEFBB
S113067081EE94E0215080409040E1F700C00000FA
S11306808DE291E086D12FEF81EE94E021508040FD
S11306909040E1F700C000008DE291E07CD12FEFA3
S11306A085EA9EE0215080409040E1F700C00000C0
S11306B08DE291E06ED12FEF81EE94E021508040E5
S11306C09040E1F700C000008DE291E064D12FEF8B
S11306D081EE94E0215080409040E1F700C000009A
S11306E08DE291E056D12FEF81EE94E021508040CD
S11306F09040E1F700C0000008958DE291E049D1F7
S11307002FEF81EE94E0215080409040E1F700C04B
S113071000008DE291E03FD12FEF81EE94E0215073
S113072080409040E1F700C000008DE291E031D1BB
S11307302FEF81EE94E0215080409040E1F700C01B
S113074000008DE291E027D12FEF81EE94E021505B
S113075080409040E1F700C000000895C9D3ADDCAB
S1130760CCDF55C080912E01882309F44FC010922C
S11307702E0161E088E291E024D200E010E027ED50
S113078033E440E050E068EC72E488E291E058D24F
S1130790609324017093250180932601909327018F
S11307A086E191E04ED380E191E04BD323DF609169
S11307B02401709125018091260190912701ADDEDD
S11307C0C0902401D0902501E0902601F0902701EB
S11307D020E030E04CE052E4C701B60149D51816D8
S11307E044F48DE291E0D3D081E08093080130DFBE
S11307F00EC020E030E04CE052E4C701B601E9D37A
S113080088232CF48DE291E0C0D001C000008091D7
S11308100801882309F4A6CFB3DC80912E01882334
S1130820D9F386E191E00DD380E191E00AD3809180
S11308300A01882359F060911C0170911D01809177
S11308401E0190911F0169DEA7DE19C0E09000012E
S1130850F090010100910201109103012091240103
S1130860309125014091260150912701609120018A
S113087070912101809122019091230196DD61E024
S113088088E291E09ED100E010E027ED33E440E0FF
S113089050E068EC72E488E291E0D2D16B017C0113
S11308A0609324017093250180932601909327017E
S11308B02DEC3CEC44E152E4DBD4181654F481E012
S11308C0809309018DE291E064D08DE291E05FD0E4
S11308D044C020E030E042E152E4C701B60179D3DC
S11308E0882354F481E0809309018DE291E051D092
S11308F08DE291E04AD031C0109209018DE291E07D
S11309004AD0C0902401D0902501E0902601F090B7
S113091027018090000190900101A0900201B09005
S11309200301A5019401C701B601A2D4181624F449
S11309308DE291E02CD011C02DEC3CEC4CE45EE354
S1130940C501B401E1D29B01AC01C701B60141D399
S113095088231CF48DE291E018D010922E015CCF14
S11309608091000190910101A0910201B0910301D5
S113097080931C0190931D01A0931E01B0931F014D
S11309800895539A3D9A5B9808955B9A08955B98ED
S11309900895459A089545980895569A509A519AFB
S11309A0519A579A509A08956230710541F13CF476
S11309B06115710561F06130710579F00895643055
S11309C07105B9F014F16530710569F00895452B8E
S11309D011F05E9A08955E980895452B11F0589A87
S11309E0089558980895452B11F0599A08955998E7
S11309F00895452B11F05F9A08955F980895452B4B
S1130A0011F0599A089559980895452B11F0589A60
S1130A100895589808956EBD0DB407FEFDCF8EB5A8
S1130A200895EF92FF920F931F93CF93DF937C016E
S1130A30EA01122FFC018081882319F0813021F012
S1130A4005C029982A9A02C02A98299A6F77C70163
S1130A50E2DF0FEF010F112361F010E00F5F1F4F72
S1130A600C0F1D1F6FEFC701D6DF8993C017D10785
S1130A70C9F7F7018081882319F0813019F003C088
S1130A80299A01C02A9ADF91CF911F910F91FF906B
S1130A90EF900895CF93DF931F92CDB7DEB71982FD
S1130AA021E0AE014F5F5F4FBCDF89810F90DF9182
S1130AB0CF910895CF93DF9300D0CDB7DEB71982DD
S1130AC01A8222E0AE014F5F5F4FABDF898190E075
S1130AD0982F88272A81822B0F900F90DF91CF9136
S1130AE008951F93CF93DF93EC01142F88818823FB
S1130AF019F0813021F005C029982A9A02C02A9859
S1130B00299A6068CE0187DF612FCE0184DF888156
S1130B10882319F0813019F003C0299A01C02A9A58
S1130B20DF91CF911F910895CF93DF93EC0160E0A3
S1130B30B1DF837D482F426060E0CE01D2DFDF91D8
S1130B40CF9108951F93CF93DF93EC01162F60E0AC
S1130B50A1DF112319F0482F406802C0482F4F77B6
S1130B6060E0CE01BEDFDF91CF911F9108951F9306
S1130B70CF93DF93EC01162F60E08CDF112319F083
S1130B80482F406402C0482F4F7B60E0CE01A9DFAC
S1130B90DF91CF911F9108951F93CF93DF93EC01C1
S1130BA0162F60E077DF113019F4482F406102C03E
S1130BB0482F4F7E60E0CE0194DFDF91CF911F91EB
S1130BC008951F93CF93DF93EC01162F8BB18063AD
S1130BD08BB960D185E58CBD188361E0CE01DCDF83
S1130BE060E0CE01AFDF60E0CE01C1DFCE019CDF6B
S1130BF081E0DF91CF911F910895CF93DF93EC01B2
S1130C0093DF61E0CE019EDF83EC99E00197F1F779
S1130C1000C0000060E0CE013DDF482F406260E08C
S1130C20CE015FDF89E79FE30197F1F700C0000081
S1130C3061E0CE013FDF96958795DF91CF910895CE
S1130C404F925F926F927F928F929F92AF92BF92D8
S1130C50CF92DF92EF92FF920F931F93CF93DF9384
S1130C604A015B0168017901C8DFBC0180E090E0C2
S1130C704DD220E030E040E058E3FED2A7019601D7
S1130C80FBD22B013C01A50194016FE775E08BE1D8
S1130C9096EBA3D16B017C01A3019201C701B601BC
S1130CA0EBD226E133E843E957E32FD14CD322E3D7
S1130CB031E140E85BE328D12FE735E04BE955EB20
S1130CC08CD1062F172FD82FC92F20E030E0A9018F
S1130CD0CFD288230CF060C0A5019401C301B201F6
S1130CE07CD120E030E048EC52E4C6D26B017C01B8
S1130CF02BE532E44EE050E4BFD22FE135E042E789
S1130D0053EC03D12B013C01A7019601C701B601A5
S1130D10B3D24B015C0124E338E749E25BE3ACD294
S1130D20A3019201F2D02B013C01A7019601C50158
S1130D30B401A2D24B015C0126E03FEE41EA56E346
S1130D409BD29B01AC01C301B201DED02B013C015B
S1130D50A7019601C501B4018FD24B015C0123E1C7
S1130D6037E142EF52E388D29B01AC01C301B201E7
S1130D70CBD02B013C01A7019601C501B4017CD263
S1130D802BE339E947E25FE277D2A3019201BDD0B8
S1130D90062F172FD82FC92F602F712F8D2F9C2F1F
S1130DA0DF91CF911F910F91FF90EF90DF90CF9043
S1130DB0BF90AF909F908F907F906F905F904F9077
S1130DC008958CB582658CBD8CB58A7F8CBD84B149
S1130DD0886284B9229A8AB180638AB95D9A5C9ADE
S1130DE008958EBD0DB407FEFDCF0895FC017183F7
S1130DF06083538342833583248308951F93CF9361
S1130E00DF93EC01142F288139812115310521F05C
S1130E102130310519F003C05D9801C05C98862F1C
S1130E20E0DF812FDEDF88819981009719F0019737
S1130E3019F003C05D9A01C05C9ADF91CF911F91B4
S1130E400895CF93DF93EC01BCDF4FEF69E0CE014F
S1130E50D5DF47E06BE0CE01D1DF41E06AE0CE01AF
S1130E60CDDF41E06CE0CE01C9DFDF91CF91089581
S1130E700F931F93CF938C01FC01C4819281C90FFE
S1130E804FE06C2FC801BADFC150D1F7CF911F9149
S1130E900F910895229A8CB580618CBD8CB58064C5
S1130EA08CBD8CB58C7F8CBD259A239A219A299A66
S1130EB00895FC01718360830895EFE6F0E080817A
S1130EC0826080830895072E000C880B990B20D133
S1130ED020E030E04AE751E4CFD1E7D070938900B5
S1130EE060938800E1E8F0E0808185608083089564
S1130EF01092C50087E68093C40088E98093C100FE
S1130F0086E08093C20008955058BB27AA270ED0CC
S1130F1075C166D130F06BD120F031F49F3F11F4EC
S1130F201EF45BC10EF4E095E7FB51C1E92F77D1C4
S1130F3080F3BA17620773078407950718F071F4F2
S1130F409EF58FC10EF4E0950B2EBA2FA02D0B0148
S1130F50B90190010C01CA01A0011124FF27591BFA
S1130F6099F0593F50F4503E68F11A16F040A22F00
S1130F70232F342F4427585FF3CF46953795279571
S1130F80A795F0405395C9F77EF41F16BA0B620B70
S1130F90730B840BBAF09150A1F0FF0FBB1F661FB7
S1130FA0771F881FC2F70EC0BA0F621F731F841FFA
S1130FB048F4879577956795B795F7959E3F08F020
S1130FC0B3CF9395880F08F09927EE0F97958795DF
S1130FD00895D9D008F481E008950CD00FC107D149
S1130FE040F0FED030F021F45F3F19F0F0C0511111
S1130FF039C1F3C014D198F39923C9F35523B1F33C
S1131000951B550BBB27AA2762177307840738F073
S11310109F5F5F4F220F331F441FAA1FA9F333D0D2
S11310200E2E3AF0E0E830D091505040E695001C86
S1131030CAF729D0FE2F27D0660F771F881FBB1F42
S1131040261737074807AB07B0E809F0BB0B802D1C
S1131050BF01FF2793585F4F2AF09E3F510568F068
S1131060B6C000C15F3FECF3983EDCF386957795FC
S11310706795B795F7959F5FC9F7880F911D96956A
S1131080879597F90895E1E0660F771F881FBB1FC6
S1131090621773078407BA0720F0621B730B840B73
S11310A0BA0BEE1F88F7E095089504D06894B11147
S11310B0D9C00895BCD088F09F5790F0B92F9927D4
S11310C0B751A0F0D1F0660F771F881F991F1AF04F
S11310D0BA95C9F712C0B13081F0C3D0B1E0089518
S11310E0C0C0672F782F8827B85F39F0B93FCCF399
S11310F0869577956795B395D9F73EF49095809545
S1131100709561957F4F8F4F9F4F0895E89409C064
S113111097FB3EF490958095709561957F4F8F4F26
S11311209F4F9923A9F0F92F96E9BB279395F6953C
S1131130879577956795B795F111F8CFFAF4BB0FBA
S113114011F460FF1BC06F5F7F4F8F4F9F4F16C01E
S1131150882311F096E911C0772321F09EE8872FA8
S1131160762F05C0662371F096E8862F70E060E064
S11311702AF09A95660F771F881FDAF7880F9695DD
S1131180879597F90895990F0008550FAA0BE0E881
S1131190FEEF16161706E807F907C0F01216130635
S11311A0E407F50798F0621B730B840B950B39F475
S11311B00A2661F0232B242B252B21F408950A26DB
S11311C009F4A140A6958FEF811D811D089597F91B
S11311D09F6780E870E060E008959FEF80EC0895D9
S11311E000240A9416161706180609060895002402
S11311F00A9412161306140605060895092E03947C
S1131200000C11F4882352F0BB0F40F4BF2B11F4EF
S113121060FF04C06F5F7F4F8F4F9F4F089557FD4E
S11312209058440F551F59F05F3F71F04795880F50
S113123097FB991F61F09F3F79F0879508951216E7
S113124013061406551FF2CF4695F1DF08C0161693
S113125017061806991FF1CF869571056105089444
S11312600895E894BB2766277727CB0197F908955B
S11312708ADF08F48FEF08950BD0C0CFB1DF28F0D8
S1131280B6DF18F0952309F0A2CFA7CF1124EACF37
S1131290C6DFA0F3959FD1F3950F50E0551F629FD1
S11312A0F001729FBB27F00DB11D639FAA27F00DBB
S11312B0B11DAA1F649F6627B00DA11D661F829FE2
S11312C02227B00DA11D621F739FB00DA11D621FC7
S11312D0839FA00D611D221F749F3327A00D611DE4
S11312E0231F849F600D211D822F762F6A2F1124C6
S11312F09F5750408AF0E1F088234AF0EE0FFF1F19
S1131300BB1F661F771F881F91505040A9F79E3F4F
S1131310510570F05CCFA6CF5F3FECF3983EDCF351
S1131320869577956795B795F795E7959F5FC1F78C
S1131330FE2B880F911D9695879597F9089511F4C2
S11313400EF44BCF3EC073DFD0F39923D9F3CEF321
S11313509F57550B87FF43D00024A0E640EA900135
S113136080585695979528F4805C660F771F881FE0
S113137020F026173707480730F4621B730B840BE1
S1131380202931294A2BA695179407942025312525
S11313904A2758F7660F771F881F20F0261737074C
S11313A0480730F4620B730B840B200D311D411D73
S11313B0A09581F7B901842F9158880F9695879548
S11313C008959F3F31F0915020F487957795679564
S11313D0B795880F911D9695879597F90895915023
S11313E05040660F771F881FD2F7089597FB072E8A
S11313F016F4009406D077FD08D00BD007FC05D076
S11314003EF4909581959F4F0895709561957F4F17
S11314100895AA1BBB1B51E107C0AA1FBB1FA61737
S1131420B70710F0A61BB70B881F991F5A95A9F789
S113143080959095BC01CD010895EE0FFF1F059096
S10D1440F491E02D0994F894FFCF15
S107144A0000124246
S9030000FC
