S0150000426162795761726D6572556E6F2E73726563F1
S113000034C0000059C0000057C0000055C00000B3
S113001053C0000051C000004FC000004DC000009C
S11300204BC0000049C0000047C00000A9C0000048
S113003043C0000041C000003FC000003DC00000BC
S11300403BC0000039C0000037C0000035C00000CC
S113005033C0000031C000002FC000002DC00000DC
S11300602BC0000029C00000DC0311241FBECFEF09
S1130070D8E0DEBFCDBF11E0A0E0B1E0EAEAF2E1F2
S113008002C005900D92A430B107D9F721E0A4E095
S1130090B1E001C01D92A433B207E1F710E0C5E35B
S11300A0D0E004C02197FE010E944D09C433D1075A
S11300B0C9F7EAD20C945309A3CF78948AE091E06B
S11300C098D38DE291E089D38AE091E092D361E004
S11300D070E08FE291E01DD68FE291E01ED668EECB
S11300E073E08FE291E01FD681E191E0D6D524E060
S11300F030E044E050E060E070E081E191E0A2D5BE
S11301008FE39CE90197F1F700C0000024E030E0A0
S113011044E050E061E070E08BE091E093D58FE340
S11301209CE90197F1F700C0000081E191E0B5D5A9
S11301308FE39CE90197F1F700C000008BE091E0A8
S1130140ACD58FE39CE90197F1F700C0000081E191
S113015091E0BED59FEF26E781E09150204080409A
S1130160E1F700C000008BE091E0B2D59FEF26E7F5
S113017081E0915020408040E1F700C000000895E4
S11301801F920F920FB60F9211248F939F93109288
S113019085001092840080913301882349F0809176
S11301A03101909132010196909332018093310193
S11301B081E080932E019F918F910F900FBE0F903D
S11301C01F9018954F925F926F927F928F929F9299
S11301D0AF92BF92CF92DF92EF92FF920F931F9351
S11301E0CF93DF932B013C0149015A016701780148
S11301F04FEF69E081E191E02DD54FEF69E08BE0AD
S113020091E028D540E064E081E191E023D520E04D
S113021030E040E251E4C301B2010FD67BD6462F51
S113022068E081E191E016D5C301B2016ED6CAE05F
S1130230D0E0CB01BE010E942609482F406866E049
S113024081E191E007D520E030E040E251E4C301D0
S1130250B20142D75AD6CB01BE01F8D7482F62E08B
S113026081E191E0F7D440E063E081E191E0F2D4F0
S113027020E030E040E251E4C501B401DED54AD6C5
S1130280462F67E081E191E0E5D4C501B4013DD694
S1130290CB01BE01DBD7482F406865E081E191E0E6
S11302A0D9D420E030E040E251E4C501B40114D7D0
S11302B02CD6CB01BE01CAD7482F61E081E191E081
S11302C0C9D420E030E040E251E4C701B601B5D51D
S11302D021D6462F66E08BE091E0BCD4C701B6017D
S11302E014D6CB01BE01B2D7482F406868E08BE03A
S11302F091E0B0D420E030E040E251E4C701B6011F
S1130300EBD603D6CB01BE01A1D7482F62E08BE028
S113031091E0A0D4DF91CF911F910F91FF90EF90C6
S1130320DF90CF90BF90AF909F908F907F906F9011
S11303305F904F900895CF92DF92EF92FF92CF9308
S1130340DF936B017C014FEF69E08BE091E082D495
S113035020E030E040E251E4C701B6016ED5DAD5C1
S1130360462F66E08BE091E075D4C701B601CDD588
S1130370CAE0D0E0CB01BE0169D7482F406868E0ED
S11303808BE091E067D420E030E040E251E4C70123
S1130390B601A2D6BAD5CB01BE0158D7482F62E028
S11303A08BE091E057D4DF91CF91FF90EF90DF90F5
S11303B0CF90089540E069E081E191E04BD440E0C2
S11303C063E081E191E046D44BE567E081E191E0AF
S11303D041D44FE465E081E191E03CD44FE061E039
S11303E081E191E037D44FE064E081E191E032D4DF
S11303F047E668E081E191E02DD440E066E081E1E8
S113040091E028D440E062E081E191E023C40895C2
S11304108DE291E0EAD12FEF81EE94E0215080400B
S11304209040E1F700C000008DE291E0E0D12FEFB1
S113043081EE94E0215080409040E1F700C000003C
S11304408DE291E0D2D12FEF81EE94E021508040F3
S11304509040E1F700C000008DE291E0C8D12FEF99
S113046081EE94E0215080409040E1F700C000000C
S113047008952DEC3CEC4CE45EE360910001709136
S1130480010180910201909103016FD420911F0119
S1130490309120014091210150912201CAD41816B3
S11304A054F180913301811117C08DE291E09DD107
S11304B080910501882381F08091330181110CC062
S11304C081E0809333011092320110923101109235
S11304D005018DE291E08BD141E050E060E070E0F5
S11304E08AE091E08DD18091310190913201883779
S11304F0910594F417C08DE291E079D140E050E089
S113050060E070E08AE091E07BD1109233011092B8
S113051032011092310106C010923301109232015F
S11305201092310120E030E044E152E460911B017B
S113053070911C0180911D0190911E01C9D518165E
S113054044F441E050E061E070E08AE091E058D189
S113055007C040E050E060E070E08AE091E050D1F4
S1130560349973C08091060181116FC065C01092E7
S1130570060133996DC080910901811169C06BC076
S11305802DEC3CEC4CEC5DE360911701709118018B
S11305908091190190911A01E8D360931701709327
S11305A018018093190190931A0181E08093090145
S11305B002C0109209014A9958C080910701811123
S11305C054C04EC02DEC3CEC4CEC5DE36091170143
S11305D0709118018091190190911A01C5D360930B
S11305E01701709318018093190190931A0181E007
S11305F08093070102C010920701189942C08091AC
S1130600080181113EC034C08091170190911801F6
S1130610A0911901B0911A018093000190930101F6
S1130620A0930201B0930301F3DE81E080930801FB
S113063008951092080108958DE291E0D8D081E0E8
S1130640809305018093060194CF349990CF91CF84
S11306503399AFCFB0CF80910401811191CFA5CF51
S1130660809104018111AECFC2CF4A99C4CFC5CFC6
S11306709091040181E08927809304018111D5CFF1
S1130680C3CF1899D6CF089563D317DDC1DEF1DE49
S113069080912E018823D9F381E191E0FED28BE091
S11306A091E0FBD280910401882359F060911701F5
S11306B0709118018091190190911A013CDE7ADE43
S11306C019C0E0900001F090010100910201109125
S11306D0030120911F01309120014091210150918B
S11306E0220160911B0170911C0180911D01909168
S11306F01E0168DD60E088E291E08FD161E083E271
S113070091E08BD100E010E027ED33E440E050E0CD
S113071068EC72E483E291E0BFD160931F017093AF
S11307202001809321019093220100E010E027ED45
S113073033E440E050E068EC72E488E291E0ACD14C
S113074060931B0170931C0180931D0190931E0103
S11307508090000190900101A0900201B0900301EB
S1130760C0901F01D0902001E0902101F09022015F
S11307702DEC3CEC4CEC5DE3C501B401F5D2A701D2
S1130780960157D3181624F08DE291E02CD011C0B5
S11307902DEC3CEC4CE45EE3C501B401E5D29B01D5
S11307A0AC01C701B60145D318161CF08DE291E0E7
S11307B018D010922E016BCF80910001909101010D
S11307C0A0910201B0910301809317019093180145
S11307D0A0931901B0931A010895539A3D9A5B9816
S11307E008955B9A08955B980895459A08954598ED
S11307F00895569A509A519A519A579A509A089530
S11308006230710541F13CF46115710561F06130AC
S1130810710579F0089564307105B9F014F165300B
S1130820710569F00895452B11F05E9A08955E985C
S11308300895452B11F0589A089558980895452B1A
S113084011F0599A089559980895452B11F05F9A1B
S113085008955F980895452B11F0599A0895599871
S11308600895452B11F0589A0895589808956EBD2F
S11308700DB407FEFDCF8EB50895EF92FF920F934E
S11308801F93CF93DF937C01EA01122FFC01808137
S1130890882319F0813021F005C029982A9A02C0D2
S11308A02A98299A6F77C701E2DF0FEF010F11230E
S11308B061F010E00F5F1F4F0C0F1D1F6FEFC7019A
S11308C0D6DF8993C017D107C9F7F7018081882340
S11308D019F0813019F003C0299A01C02A9ADF91D6
S11308E0CF911F910F91FF90EF900895CF93DF93D5
S11308F01F92CDB7DEB7198221E0AE014F5F5F4F83
S1130900BCDF89810F90DF91CF910895CF93DF935E
S113091000D0CDB7DEB719821A8222E0AE014F5F54
S11309205F4FABDF898190E0982F88272A81822B43
S11309300F900F90DF91CF9108951F93CF93DF9382
S1130940EC01142F8881882319F0813021F005C02F
S113095029982A9A02C02A98299A6068CE0187DFCA
S1130960612FCE0184DF8881882319F0813019F04A
S113097003C0299A01C02A9ADF91CF911F9108954B
S1130980CF93DF93EC0160E0B1DF837D482F4260B9
S113099060E0CE01D2DFDF91CF9108951F93CF9312
S11309A0DF93EC01162F60E0A1DF112319F0482F2B
S11309B0406802C0482F4F7760E0CE01BEDFDF9170
S11309C0CF911F9108951F93CF93DF93EC01162FBE
S11309D060E08CDF112319F0482F406402C0482FD7
S11309E04F7B60E0CE01A9DFDF91CF911F91089585
S11309F01F93CF93DF93EC01162F60E077DF113064
S1130A0019F4482F406102C0482F4F7E60E0CE01A8
S1130A1094DFDF91CF911F9108951F93CF93DF93BC
S1130A20EC01162F8BB180638BB964D185E58CBD45
S1130A30188361E0CE01DCDF60E0CE01AFDF60E06F
S1130A40CE01C1DFCE019CDF81E0DF91CF911F9108
S1130A500895CF93DF93EC0193DF61E0CE019EDF35
S1130A6083EC99E00197F1F700C0000060E0CE014B
S1130A703DDF482F406260E0CE015FDF89E79FE3FE
S1130A800197F1F700C0000061E0CE013FDF9695C9
S1130A908795DF91CF9108954F925F926F927F92E5
S1130AA08F929F92AF92BF92CF92DF92EF92FF927A
S1130AB00F931F93CF93DF934A015B016801790180
S1130AC0C8DFBC0180E090E051D220E030E040E09B
S1130AD058E302D3A7019601FFD22B013C01A501E3
S1130AE094016FE775E08BE196EBA7D16B017C0174
S1130AF0A3019201C701B601EFD226E133E843E92D
S1130B0057E333D150D322E331E140E85BE32CD106
S1130B102FE735E04BE955EB90D1062F172FD82F4F
S1130B20C92F20E030E0A901D3D288230CF060C0A3
S1130B30A5019401C301B20180D120E030E048EC6A
S1130B4052E4CAD26B017C012BE532E44EE050E45E
S1130B50C3D22FE135E042E753EC07D12B013C012E
S1130B60A7019601C701B601B7D24B015C0124E38A
S1130B7038E749E25BE3B0D2A3019201F6D02B013E
S1130B803C01A7019601C501B401A6D24B015C0149
S1130B9026E03FEE41EA56E39FD29B01AC01C3013C
S1130BA0B201E2D02B013C01A7019601C501B401B9
S1130BB093D24B015C0123E137E142EF52E38CD243
S1130BC09B01AC01C301B201CFD02B013C01A701B1
S1130BD09601C501B40180D22BE339E947E25FE213
S1130BE07BD2A3019201C1D0062F172FD82FC92F72
S1130BF0602F712F8D2F9C2FDF91CF911F910F911B
S1130C00FF90EF90DF90CF90BF90AF909F908F9028
S1130C107F906F905F904F9008958CB582658CBDE6
S1130C208CB58A7F8CBD84B1886284B9229A8AB1DA
S1130C3080638AB95D9A5C9A08958EBD0DB407FEEF
S1130C40FDCF0895FC017183608353834283358310
S1130C50248308951F93CF93DF93EC01142F2881ED
S1130C6039812115310521F02130310519F003C0F6
S1130C705D9801C05C98862FE0DF812FDEDF8881DC
S1130C809981009719F0019719F003C05D9A01C08A
S1130C905C9ADF91CF911F910895CF93DF93EC017C
S1130CA0BCDF4FEF69E0CE01D5DF40E06FE0CE015D
S1130CB0D1DF47E06BE0CE01CDDF4FE06AE0CE014B
S1130CC0C9DF41E06CE0CE01C5DFDF91CF9108952B
S1130CD00F931F93CF938C01FC01C4819281C90FA0
S1130CE04FE06C2FC801B6DFC150D1F7CF911F91EF
S1130CF00F910895229A8CB580618CBD8CB5806467
S1130D008CBD8CB58C7F8CBD259A239A219A299A07
S1130D100895FC01718360830895EFE6F0E080811B
S1130D20826080830895072E000C880B990B20D1D4
S1130D3020E030E04AE751E4CFD1E7D07093890056
S1130D4060938800E1E8F0E0808185608083089505
S1130D501092C50087E68093C40088E98093C1009F
S1130D6086E08093C20008955058BB27AA270ED06E
S1130D7075C166D130F06BD120F031F49F3F11F48E
S1130D801EF45BC10EF4E095E7FB51C1E92F77D166
S1130D9080F3BA17620773078407950718F071F494
S1130DA09EF58FC10EF4E0950B2EBA2FA02D0B01EA
S1130DB0B90190010C01CA01A0011124FF27591B9C
S1130DC099F0593F50F4503E68F11A16F040A22FA2
S1130DD0232F342F4427585FF3CF46953795279513
S1130DE0A795F0405395C9F77EF41F16BA0B620B12
S1130DF0730B840BBAF09150A1F0FF0FBB1F661F59
S1130E00771F881FC2F70EC0BA0F621F731F841F9B
S1130E1048F4879577956795B795F7959E3F08F0C1
S1130E20B3CF9395880F08F09927EE0F9795879580
S1130E300895D9D008F481E008950CD00FC107D1EA
S1130E4040F0FED030F021F45F3F19F0F0C05111B2
S1130E5039C1F3C014D198F39923C9F35523B1F3DD
S1130E60951B550BBB27AA2762177307840738F015
S1130E709F5F5F4F220F331F441FAA1FA9F333D074
S1130E800E2E3AF0E0E830D091505040E695001C28
S1130E90CAF729D0FE2F27D0660F771F881FBB1FE4
S1130EA0261737074807AB07B0E809F0BB0B802DBE
S1130EB0BF01FF2793585F4F2AF09E3F510568F00A
S1130EC0B6C000C15F3FECF3983EDCF3869577959E
S1130ED06795B795F7959F5FC9F7880F911D96950C
S1130EE0879597F90895E1E0660F771F881FBB1F68
S1130EF0621773078407BA0720F0621B730B840B15
S1130F00BA0BEE1F88F7E095089504D06894B111E8
S1130F10D9C00895BCD088F09F5790F0B92F992775
S1130F20B751A0F0D1F0660F771F881F991F1AF0F0
S1130F30BA95C9F712C0B13081F0C3D0B1E00895B9
S1130F40C0C0672F782F8827B85F39F0B93FCCF33A
S1130F50869577956795B395D9F73EF490958095E6
S1130F60709561957F4F8F4F9F4F0895E89409C006
S1130F7097FB3EF490958095709561957F4F8F4FC8
S1130F809F4F9923A9F0F92F96E9BB279395F695DE
S1130F90879577956795B795F111F8CFFAF4BB0F5C
S1130FA011F460FF1BC06F5F7F4F8F4F9F4F16C0C0
S1130FB0882311F096E911C0772321F09EE8872F4A
S1130FC0762F05C0662371F096E8862F70E060E006
S1130FD02AF09A95660F771F881FDAF7880F96957F
S1130FE0879597F90895990F0008550FAA0BE0E823
S1130FF0FEEF16161706E807F907C0F012161306D7
S1131000E407F50798F0621B730B840B950B39F416
S11310100A2661F0232B242B252B21F408950A267C
S113102009F4A140A6958FEF811D811D089597F9BC
S11310309F6780E870E060E008959FEF80EC08957A
S113104000240A94161617061806090608950024A3
S11310500A9412161306140605060895092E03941D
S1131060000C11F4882352F0BB0F40F4BF2B11F491
S113107060FF04C06F5F7F4F8F4F9F4F089557FDF0
S11310809058440F551F59F05F3F71F04795880FF2
S113109097FB991F61F09F3F79F087950895121689
S11310A013061406551FF2CF4695F1DF08C0161635
S11310B017061806991FF1CF8695710561050894E6
S11310C00895E894BB2766277727CB0197F90895FD
S11310D08ADF08F48FEF08950BD0C0CFB1DF28F07A
S11310E0B6DF18F0952309F0A2CFA7CF1124EACFD9
S11310F0C6DFA0F3959FD1F3950F50E0551F629F73
S1131100F001729FBB27F00DB11D639FAA27F00D5C
S1131110B11DAA1F649F6627B00DA11D661F829F83
S11311202227B00DA11D621F739FB00DA11D621F68
S1131130839FA00D611D221F749F3327A00D611D85
S1131140231F849F600D211D822F762F6A2F112467
S11311509F5750408AF0E1F088234AF0EE0FFF1FBA
S1131160BB1F661F771F881F91505040A9F79E3FF1
S1131170510570F05CCFA6CF5F3FECF3983EDCF3F3
S1131180869577956795B795F795E7959F5FC1F72E
S1131190FE2B880F911D9695879597F9089511F464
S11311A00EF44BCF3EC073DFD0F39923D9F3CEF3C3
S11311B09F57550B87FF43D00024A0E640EA9001D7
S11311C080585695979528F4805C660F771F881F82
S11311D020F026173707480730F4621B730B840B83
S11311E0202931294A2BA6951794079420253125C7
S11311F04A2758F7660F771F881F20F026173707EE
S1131200480730F4620B730B840B200D311D411D14
S1131210A09581F7B901842F9158880F96958795E9
S113122008959F3F31F0915020F487957795679505
S1131230B795880F911D9695879597F908959150C4
S11312405040660F771F881FD2F7089597FB072E2B
S113125016F4009406D077FD08D00BD007FC05D017
S11312603EF4909581959F4F0895709561957F4FB9
S11312700895AA1BBB1B51E107C0AA1FBB1FA617D9
S1131280B70710F0A61BB70B881F991F5A95A9F72B
S113129080959095BC01CD010895EE0FFF1F059038
S10D12A0F491E02D0994F894FFCFB7
S10712AA00000642F4
S9030000FC
